{
  "address": "0xCf7Ed3AccA5a467e9e704C703E8D87F634fB0Fc9",
  "abi": [
    {
      "inputs": [
        {
          "internalType": "address",
          "name": "_vrfCoordinatorV2",
          "type": "address"
        },
        {
          "internalType": "uint64",
          "name": "_subscriptionId",
          "type": "uint64"
        },
        {
          "internalType": "bytes32",
          "name": "_gasLane",
          "type": "bytes32"
        },
        {
          "internalType": "uint256",
          "name": "_interval",
          "type": "uint256"
        },
        {
          "internalType": "uint256",
          "name": "_entranceFee",
          "type": "uint256"
        },
        {
          "internalType": "uint32",
          "name": "_callbackGasLimit",
          "type": "uint32"
        }
      ],
      "stateMutability": "nonpayable",
      "type": "constructor"
    },
    {
      "inputs": [],
      "name": "LotteryNotOpen",
      "type": "error"
    },
    {
      "inputs": [
        {
          "internalType": "address",
          "name": "have",
          "type": "address"
        },
        {
          "internalType": "address",
          "name": "want",
          "type": "address"
        }
      ],
      "name": "OnlyCoordinatorCanFulfill",
      "type": "error"
    },
    {
      "inputs": [],
      "name": "TransferFailed",
      "type": "error"
    },
    {
      "inputs": [],
      "name": "sendMore",
      "type": "error"
    },
    {
      "anonymous": false,
      "inputs": [
        {
          "indexed": true,
          "internalType": "address",
          "name": "player",
          "type": "address"
        }
      ],
      "name": "LotterEnter",
      "type": "event"
    },
    {
      "anonymous": false,
      "inputs": [
        {
          "indexed": true,
          "internalType": "uint256",
          "name": "requestId",
          "type": "uint256"
        }
      ],
      "name": "RequestedLotteryWinner",
      "type": "event"
    },
    {
      "anonymous": false,
      "inputs": [
        {
          "indexed": true,
          "internalType": "address",
          "name": "player",
          "type": "address"
        }
      ],
      "name": "WinnerPicked",
      "type": "event"
    },
    {
      "inputs": [
        {
          "internalType": "bytes",
          "name": "",
          "type": "bytes"
        }
      ],
      "name": "checkUpkeep",
      "outputs": [
        {
          "internalType": "bool",
          "name": "upKeepNeeded",
          "type": "bool"
        },
        {
          "internalType": "bytes",
          "name": "",
          "type": "bytes"
        }
      ],
      "stateMutability": "view",
      "type": "function"
    },
    {
      "inputs": [],
      "name": "enterLottery",
      "outputs": [],
      "stateMutability": "payable",
      "type": "function"
    },
    {
      "inputs": [],
      "name": "getCallbackGasLimit",
      "outputs": [
        {
          "internalType": "uint256",
          "name": "",
          "type": "uint256"
        }
      ],
      "stateMutability": "view",
      "type": "function"
    },
    {
      "inputs": [],
      "name": "getEntranceFee",
      "outputs": [
        {
          "internalType": "uint256",
          "name": "",
          "type": "uint256"
        }
      ],
      "stateMutability": "view",
      "type": "function"
    },
    {
      "inputs": [],
      "name": "getInterval",
      "outputs": [
        {
          "internalType": "uint256",
          "name": "",
          "type": "uint256"
        }
      ],
      "stateMutability": "view",
      "type": "function"
    },
    {
      "inputs": [],
      "name": "getLastTimeStamp",
      "outputs": [
        {
          "internalType": "uint256",
          "name": "",
          "type": "uint256"
        }
      ],
      "stateMutability": "view",
      "type": "function"
    },
    {
      "inputs": [],
      "name": "getLotteryState",
      "outputs": [
        {
          "internalType": "enum Lottery.LotteryState",
          "name": "",
          "type": "uint8"
        }
      ],
      "stateMutability": "view",
      "type": "function"
    },
    {
      "inputs": [],
      "name": "getNumWords",
      "outputs": [
        {
          "internalType": "uint32",
          "name": "",
          "type": "uint32"
        }
      ],
      "stateMutability": "pure",
      "type": "function"
    },
    {
      "inputs": [],
      "name": "getNumberOfPlayers",
      "outputs": [
        {
          "internalType": "uint256",
          "name": "",
          "type": "uint256"
        }
      ],
      "stateMutability": "view",
      "type": "function"
    },
    {
      "inputs": [
        {
          "internalType": "uint256",
          "name": "_index",
          "type": "uint256"
        }
      ],
      "name": "getPlayer",
      "outputs": [
        {
          "internalType": "address",
          "name": "",
          "type": "address"
        }
      ],
      "stateMutability": "view",
      "type": "function"
    },
    {
      "inputs": [],
      "name": "getRecentWinner",
      "outputs": [
        {
          "internalType": "address",
          "name": "",
          "type": "address"
        }
      ],
      "stateMutability": "view",
      "type": "function"
    },
    {
      "inputs": [],
      "name": "getResquestConfirmations",
      "outputs": [
        {
          "internalType": "uint16",
          "name": "",
          "type": "uint16"
        }
      ],
      "stateMutability": "pure",
      "type": "function"
    },
    {
      "inputs": [
        {
          "internalType": "bytes",
          "name": "",
          "type": "bytes"
        }
      ],
      "name": "performUpkeep",
      "outputs": [],
      "stateMutability": "nonpayable",
      "type": "function"
    },
    {
      "inputs": [
        {
          "internalType": "uint256",
          "name": "requestId",
          "type": "uint256"
        },
        {
          "internalType": "uint256[]",
          "name": "randomWords",
          "type": "uint256[]"
        }
      ],
      "name": "rawFulfillRandomWords",
      "outputs": [],
      "stateMutability": "nonpayable",
      "type": "function"
    },
    {
      "inputs": [
        {
          "internalType": "uint256",
          "name": "_state",
          "type": "uint256"
        }
      ],
      "name": "setLotteryState",
      "outputs": [],
      "stateMutability": "nonpayable",
      "type": "function"
    }
  ],
  "transactionHash": "0x15e927d7b4e3236e36fcdf231394e611a793854399d879a4e0f2e53b4cccd41f",
  "args": [
    "0x5FbDB2315678afecb367f032d93F642f64180aa3",
    "0x0000000000000000000000000000000000000000000000000000000000000001",
    "0x474e34a077df58807dbe9c96d3c009b23b3c6d0cce433e59bbf5b34f823bc56c",
    "30",
    "10000000000000000",
    "500000"
  ],
  "numDeployments": 1,
  "solcInputHash": "f73209a8658bcd605a538f091c7864c8",
  "bytecode": "0x6101606040523480156200001257600080fd5b506040516200189538038062001895833981810160405281019062000038919062000294565b858073ffffffffffffffffffffffffffffffffffffffff1660808173ffffffffffffffffffffffffffffffffffffffff1681525050508573ffffffffffffffffffffffffffffffffffffffff1660a08173ffffffffffffffffffffffffffffffffffffffff16815250508360e081815250508261014081815250508467ffffffffffffffff1660c08167ffffffffffffffff16815250508161012081815250506000600160146101000a81548160ff0219169083600181111562000101576200010062000330565b5b0217905550426002819055508063ffffffff166101008163ffffffff16815250505050505050506200035f565b600080fd5b600073ffffffffffffffffffffffffffffffffffffffff82169050919050565b6000620001608262000133565b9050919050565b620001728162000153565b81146200017e57600080fd5b50565b600081519050620001928162000167565b92915050565b600067ffffffffffffffff82169050919050565b620001b78162000198565b8114620001c357600080fd5b50565b600081519050620001d781620001ac565b92915050565b6000819050919050565b620001f281620001dd565b8114620001fe57600080fd5b50565b6000815190506200021281620001e7565b92915050565b6000819050919050565b6200022d8162000218565b81146200023957600080fd5b50565b6000815190506200024d8162000222565b92915050565b600063ffffffff82169050919050565b6200026e8162000253565b81146200027a57600080fd5b50565b6000815190506200028e8162000263565b92915050565b60008060008060008060c08789031215620002b457620002b36200012e565b5b6000620002c489828a0162000181565b9650506020620002d789828a01620001c6565b9550506040620002ea89828a0162000201565b9450506060620002fd89828a016200023c565b93505060806200031089828a016200023c565b92505060a06200032389828a016200027d565b9150509295509295509295565b7f4e487b7100000000000000000000000000000000000000000000000000000000600052602160045260246000fd5b60805160a05160c05160e0516101005161012051610140516114bf620003d66000396000818161064a01526106f30152600081816103740152610719015260008181610506015261089d015260006104c2015260006104e30152600061048601526000818161039a01526103ee01526114bf6000f3fe6080604052600436106100e85760003560e01c806391ad27b41161008a578063de8be8e711610059578063de8be8e7146102b4578063e55ae4e8146102df578063ecdad7591461031c578063fd6673f514610345576100e8565b806391ad27b414610229578063c1af578514610254578063c1c244e81461025e578063c5bd7ecd14610289576100e8565b8063473f1ddc116100c6578063473f1ddc1461016a57806353a2c19a146101955780636b68c03c146101c05780636e04ff0d146101eb576100e8565b806309bc33a7146100ed5780631fe543e3146101185780634585e33b14610141575b600080fd5b3480156100f957600080fd5b50610102610370565b60405161010f9190610c4a565b60405180910390f35b34801561012457600080fd5b5061013f600480360381019061013a9190610dfe565b610398565b005b34801561014d57600080fd5b5061016860048036038101906101639190610eb5565b610458565b005b34801561017657600080fd5b5061017f6105be565b60405161018c9190610f43565b60405180910390f35b3480156101a157600080fd5b506101aa6105e8565b6040516101b79190610f7d565b60405180910390f35b3480156101cc57600080fd5b506101d56105f1565b6040516101e2919061100f565b60405180910390f35b3480156101f757600080fd5b50610212600480360381019061020d91906110df565b610608565b6040516102209291906111c2565b60405180910390f35b34801561023557600080fd5b5061023e6106ef565b60405161024b9190610c4a565b60405180910390f35b61025c610717565b005b34801561026a57600080fd5b50610273610886565b6040516102809190610c4a565b60405180910390f35b34801561029557600080fd5b5061029e610890565b6040516102ab919061120f565b60405180910390f35b3480156102c057600080fd5b506102c9610899565b6040516102d69190610c4a565b60405180910390f35b3480156102eb57600080fd5b506103066004803603810190610301919061122a565b6108c7565b6040516103139190610f43565b60405180910390f35b34801561032857600080fd5b50610343600480360381019061033e919061122a565b61090e565b005b34801561035157600080fd5b5061035a61094d565b6040516103679190610c4a565b60405180910390f35b60007f0000000000000000000000000000000000000000000000000000000000000000905090565b7f000000000000000000000000000000000000000000000000000000000000000073ffffffffffffffffffffffffffffffffffffffff163373ffffffffffffffffffffffffffffffffffffffff161461044a57337f00000000000000000000000000000000000000000000000000000000000000006040517f1cf993f4000000000000000000000000000000000000000000000000000000008152600401610441929190611257565b60405180910390fd5b6104548282610959565b5050565b60018060146101000a81548160ff0219169083600181111561047d5761047c610f98565b5b021790555060007f000000000000000000000000000000000000000000000000000000000000000073ffffffffffffffffffffffffffffffffffffffff16635d3b1d307f00000000000000000000000000000000000000000000000000000000000000007f000000000000000000000000000000000000000000000000000000000000000060037f000000000000000000000000000000000000000000000000000000000000000060016040518663ffffffff1660e01b81526004016105479594939291906112bc565b6020604051808303816000875af1158015610566573d6000803e3d6000fd5b505050506040513d601f19601f8201168201806040525081019061058a9190611324565b9050807febf56642252004c18a776f30d528e7a0ce8c5db14b6596fb6550f630c8a24c6c60405160405180910390a2505050565b6000600160009054906101000a900473ffffffffffffffffffffffffffffffffffffffff16905090565b60006001905090565b6000600160149054906101000a900460ff16905090565b60006060600080600181111561062157610620610f98565b5b600160149054906101000a900460ff16600181111561064357610642610f98565b5b14905060007f0000000000000000000000000000000000000000000000000000000000000000600254426106779190611380565b119050600080600080549050119050600080471190508380156106975750825b80156106a05750815b80156106a95750805b9550856040518060400160405280600381526020017f30783000000000000000000000000000000000000000000000000000000000008152509550955050505050915091565b60007f0000000000000000000000000000000000000000000000000000000000000000905090565b7f0000000000000000000000000000000000000000000000000000000000000000341015610771576040517ffe8cfe3a00000000000000000000000000000000000000000000000000000000815260040160405180910390fd5b6000600181111561078557610784610f98565b5b600160149054906101000a900460ff1660018111156107a7576107a6610f98565b5b146107de576040517f57a990f400000000000000000000000000000000000000000000000000000000815260040160405180910390fd5b6000339080600181540180825580915050600190039060005260206000200160009091909190916101000a81548173ffffffffffffffffffffffffffffffffffffffff021916908373ffffffffffffffffffffffffffffffffffffffff1602179055503373ffffffffffffffffffffffffffffffffffffffff167fcfe396faec77b3c27edce0bdc8bc39997f6c5cae2906051cb08b9278c53a556a60405160405180910390a2565b6000600254905090565b60006003905090565b60007f000000000000000000000000000000000000000000000000000000000000000063ffffffff16905090565b60008082815481106108dc576108db6113b4565b5b9060005260206000200160009054906101000a900473ffffffffffffffffffffffffffffffffffffffff169050919050565b80600181111561092157610920610f98565b5b600160146101000a81548160ff0219169083600181111561094557610944610f98565b5b021790555050565b60008080549050905090565b6000808054905082600081518110610974576109736113b4565b5b60200260200101516109869190611412565b9050600080828154811061099d5761099c6113b4565b5b9060005260206000200160009054906101000a900473ffffffffffffffffffffffffffffffffffffffff16905080600160006101000a81548173ffffffffffffffffffffffffffffffffffffffff021916908373ffffffffffffffffffffffffffffffffffffffff160217905550600067ffffffffffffffff811115610a2657610a25610cbb565b5b604051908082528060200260200182016040528015610a545781602001602082028036833780820191505090505b5060009080519060200190610a6a929190610b8a565b506000600160146101000a81548160ff02191690836001811115610a9157610a90610f98565b5b02179055504260028190555060008173ffffffffffffffffffffffffffffffffffffffff1647604051610ac390611474565b60006040518083038185875af1925050503d8060008114610b00576040519150601f19603f3d011682016040523d82523d6000602084013e610b05565b606091505b5050905080610b40576040517f90b8ec1800000000000000000000000000000000000000000000000000000000815260040160405180910390fd5b8173ffffffffffffffffffffffffffffffffffffffff167f5b690ec4a06fe979403046eaeea5b3ce38524683c3001f662c8b5a829632f7df60405160405180910390a25050505050565b828054828255906000526020600020908101928215610c03579160200282015b82811115610c025782518260006101000a81548173ffffffffffffffffffffffffffffffffffffffff021916908373ffffffffffffffffffffffffffffffffffffffff16021790555091602001919060010190610baa565b5b509050610c109190610c14565b5090565b5b80821115610c2d576000816000905550600101610c15565b5090565b6000819050919050565b610c4481610c31565b82525050565b6000602082019050610c5f6000830184610c3b565b92915050565b6000604051905090565b600080fd5b600080fd5b610c8281610c31565b8114610c8d57600080fd5b50565b600081359050610c9f81610c79565b92915050565b600080fd5b6000601f19601f8301169050919050565b7f4e487b7100000000000000000000000000000000000000000000000000000000600052604160045260246000fd5b610cf382610caa565b810181811067ffffffffffffffff82111715610d1257610d11610cbb565b5b80604052505050565b6000610d25610c65565b9050610d318282610cea565b919050565b600067ffffffffffffffff821115610d5157610d50610cbb565b5b602082029050602081019050919050565b600080fd5b6000610d7a610d7584610d36565b610d1b565b90508083825260208201905060208402830185811115610d9d57610d9c610d62565b5b835b81811015610dc65780610db28882610c90565b845260208401935050602081019050610d9f565b5050509392505050565b600082601f830112610de557610de4610ca5565b5b8135610df5848260208601610d67565b91505092915050565b60008060408385031215610e1557610e14610c6f565b5b6000610e2385828601610c90565b925050602083013567ffffffffffffffff811115610e4457610e43610c74565b5b610e5085828601610dd0565b9150509250929050565b600080fd5b60008083601f840112610e7557610e74610ca5565b5b8235905067ffffffffffffffff811115610e9257610e91610e5a565b5b602083019150836001820283011115610eae57610ead610d62565b5b9250929050565b60008060208385031215610ecc57610ecb610c6f565b5b600083013567ffffffffffffffff811115610eea57610ee9610c74565b5b610ef685828601610e5f565b92509250509250929050565b600073ffffffffffffffffffffffffffffffffffffffff82169050919050565b6000610f2d82610f02565b9050919050565b610f3d81610f22565b82525050565b6000602082019050610f586000830184610f34565b92915050565b600063ffffffff82169050919050565b610f7781610f5e565b82525050565b6000602082019050610f926000830184610f6e565b92915050565b7f4e487b7100000000000000000000000000000000000000000000000000000000600052602160045260246000fd5b60028110610fd857610fd7610f98565b5b50565b6000819050610fe982610fc7565b919050565b6000610ff982610fdb565b9050919050565b61100981610fee565b82525050565b60006020820190506110246000830184611000565b92915050565b600080fd5b600067ffffffffffffffff82111561104a57611049610cbb565b5b61105382610caa565b9050602081019050919050565b82818337600083830152505050565b600061108261107d8461102f565b610d1b565b90508281526020810184848401111561109e5761109d61102a565b5b6110a9848285611060565b509392505050565b600082601f8301126110c6576110c5610ca5565b5b81356110d684826020860161106f565b91505092915050565b6000602082840312156110f5576110f4610c6f565b5b600082013567ffffffffffffffff81111561111357611112610c74565b5b61111f848285016110b1565b91505092915050565b60008115159050919050565b61113d81611128565b82525050565b600081519050919050565b600082825260208201905092915050565b60005b8381101561117d578082015181840152602081019050611162565b60008484015250505050565b600061119482611143565b61119e818561114e565b93506111ae81856020860161115f565b6111b781610caa565b840191505092915050565b60006040820190506111d76000830185611134565b81810360208301526111e98184611189565b90509392505050565b600061ffff82169050919050565b611209816111f2565b82525050565b60006020820190506112246000830184611200565b92915050565b6000602082840312156112405761123f610c6f565b5b600061124e84828501610c90565b91505092915050565b600060408201905061126c6000830185610f34565b6112796020830184610f34565b9392505050565b6000819050919050565b61129381611280565b82525050565b600067ffffffffffffffff82169050919050565b6112b681611299565b82525050565b600060a0820190506112d1600083018861128a565b6112de60208301876112ad565b6112eb6040830186611200565b6112f86060830185610f6e565b6113056080830184610f6e565b9695505050505050565b60008151905061131e81610c79565b92915050565b60006020828403121561133a57611339610c6f565b5b60006113488482850161130f565b91505092915050565b7f4e487b7100000000000000000000000000000000000000000000000000000000600052601160045260246000fd5b600061138b82610c31565b915061139683610c31565b92508282039050818111156113ae576113ad611351565b5b92915050565b7f4e487b7100000000000000000000000000000000000000000000000000000000600052603260045260246000fd5b7f4e487b7100000000000000000000000000000000000000000000000000000000600052601260045260246000fd5b600061141d82610c31565b915061142883610c31565b925082611438576114376113e3565b5b828206905092915050565b600081905092915050565b50565b600061145e600083611443565b91506114698261144e565b600082019050919050565b600061147f82611451565b915081905091905056fea26469706673582212205acb254dc2f6a7366dffd60781a35177c67dee3b110f26bea82a3b40093d707a64736f6c63430008130033",
  "devdoc": {
    "kind": "dev",
    "methods": {},
    "version": 1
  },
  "userdoc": {
    "kind": "user",
    "methods": {},
    "version": 1
  },
  "storageLayout": {
    "storage": [
      {
        "astId": 255,
        "contract": "contracts/Lottery.sol:Lottery",
        "label": "players",
        "offset": 0,
        "slot": "0",
        "type": "t_array(t_address_payable)dyn_storage"
      },
      {
        "astId": 257,
        "contract": "contracts/Lottery.sol:Lottery",
        "label": "recentWinner",
        "offset": 0,
        "slot": "1",
        "type": "t_address"
      },
      {
        "astId": 262,
        "contract": "contracts/Lottery.sol:Lottery",
        "label": "lotteryState",
        "offset": 20,
        "slot": "1",
        "type": "t_enum(LotteryState)237"
      },
      {
        "astId": 264,
        "contract": "contracts/Lottery.sol:Lottery",
        "label": "lastTimeStamp",
        "offset": 0,
        "slot": "2",
        "type": "t_uint256"
      }
    ],
    "types": {
      "t_address": {
        "encoding": "inplace",
        "label": "address",
        "numberOfBytes": "20"
      },
      "t_address_payable": {
        "encoding": "inplace",
        "label": "address payable",
        "numberOfBytes": "20"
      },
      "t_array(t_address_payable)dyn_storage": {
        "base": "t_address_payable",
        "encoding": "dynamic_array",
        "label": "address payable[]",
        "numberOfBytes": "32"
      },
      "t_enum(LotteryState)237": {
        "encoding": "inplace",
        "label": "enum Lottery.LotteryState",
        "numberOfBytes": "1"
      },
      "t_uint256": {
        "encoding": "inplace",
        "label": "uint256",
        "numberOfBytes": "32"
      }
    }
  }
}